:20000000683F0020B55E000001CA011001CA011001CA011001CA011001CA011001CA0110DE
:1C00200001CA011001CA011001CA011001CA011001CA011001CA01103FCA011082
:20003C00042998B549D12B4C04F1240008F0CFFB40B994F8A500400838BFE06804D3D4F86A
:20005C00880000E0C068E060001D01681B4A0978116000681168007888422DD1022006F09E
:20007C00A3FE112003F042F801202072E068011D007C10B1A079012804D00E2003F036F8AA
:20009C00E168091D08680E49083007680FB947681FB10020C8610B4F0F600B4A40F2FF7018
:2000BC0000271060094C8F6109484C6108F08EFA192000F011F898BDFEE798BDD0210840D0
:2000DC0000100440510007060000046002000040C54C000030120020DFF800F0DDB20110D2
:0400FC0008F03DBB10
:200100003C000000000000000000000034010000000000000000000001000000000000006D
:1C01200000000000000000000000000001000000000000000800000000000000BA
:20013C00340000000000000000000000680100000000000000000000010000000000000005
:14015C00010000000000000000000000080000000000000086
:2001700030000000000000000000000098010000040000000000000001000000FFFFFFFFA5
:10019000FF00000001000000080000000000000057
:2001A0002C0000000000000000000000C4010000040000000000000001000000FFFFFFFF4D
:0C01C000FFFFFFFF08000000000000002F
:2001CC0034050000E401000099A1011095A70110A5C2011009B2011045B80110000000000B
:0801EC000000000030000000DB
:2001F400280000000000000000000000140200000000000000000000FFFFFFFF00000000B1
:080214000800000000000000DA
:20021C00300500003002000069C201106DC101101FC2011095BA011000000000000000008E
:04023C002E00000090
:20024000300500005402000075C20110A9B601109DBF011049B601100000000000000000DE
:040260002F0000006B
:200264002400000000000000000000008002000000000000000000000000000008000000CC
:040284000000000076
:20028800240000000000000000000000A40200000000000000000000000000000800000084
:0402A8000000000052
:2002AC00240000000000000000000000C8020000000000000100000000000000080000003B
:0402CC00000000002E
:2002D00000000000E01D00200400000000000000000000002000000070010000300000002C
:2002F0001C020000E81D00200400000000000000000000000C00000030040000180000004F
:2003100040020000F01D0020040000000000000000000000240000004804000018000000D2
:2003300000000000F81D002004000000000000000000000010000000A00100002C00000097
:20035000CC010000001E0020040000000000000000000000200000006402000024000000D4
:20037000FFFFFFFF081E002004000000000000000000000028000000880200002400000051
:20039000FFFFFFFF101E0020040000000000000000000000580000003C0100003400000036
:2003B000FFFFFFFF181E00200400000000000000000000001000000060040000180000004B
:2003D000FFFFFFFF201E00200400000000000000000000001C000000AC02000024000000C1
:2003F000FFFFFFFF281E002004000000000000000000000038000000F40100002800000032
:20041000FFFFFFFF301E002004000000000000000000000054000000000100003C000000CD
:1804300018000000000000000000000040040000080000000000000050
:1804480018000000000000000000000058040000080000000000000020
:18046000180000000000000000000000700400000800000000000000F0
:0804780001000000288D0000C6
:0404800007F06EB95A
:040484000100000073
:0404880000000C0064
:04048C0000000D005F
:040490003200000036
:040494000100000063
:040498005C1D0020C7
:04049C00000200005A
:0404A0000000000058
:0404A40001CA011078
:0404A8000000000050
:0404AC00000000004C
:0404B0000800000040
:0404B4000000210023
:0404B800301C0020D4
:0404BC00010000003B
:0404C000741D002087
:0404C400080000002C
:0404C8000000000030
:0404CC00000000002C
:0404D0000000000028
:0404D4000000000024
:0404D8000000000020
:0404DC00010000001B
:0404E000981C002044
:0404E400060000000E
:0404E800010000000F
:0404EC00981B002039
:0404F0000000000008
:0404F4000000000004
:0404F80000020000FE
:0404FC0000000000FC
:02050000704742
:020502002A00CD
:020504000100F4
:020506002600CD
:020508002E00C3
:02050A002F00C0
:02050C003000BD
:02050E000100EA
:0105100001E9
:0805140003000000DC8C000074
:08051C000000000000000000D7
:0405240000000100D2
:0405280000000300CC
:04052C0087C401106F
:04053000380500008A
:040534003805000086
:0405380000000000BF
:04053C00900000002B
:040540009000000027
:0405440000000000B3
:04054800741D0020FE
:04054C00E583000043
:040550002000000087
:040554007C8C00009B
:04055800188C0000FB
:04055C000DC30110BA
:040560003B680000F4
:040564004B740000D4
:0405680099C801101D
:04056C009BC8011017
:040570000000000087
:04057400BF8B000039
:04057800508B0000A4
:04057C00688B000088
:04058000388B0000B4
:0205840008006D
:0205860009006A
:02058800010070
:02058A0000006F
:01058C00016D
:040590000000000067
:040594000000000063
:04059800000000005F
:04059C00000000005B
:0405A00003880000CC
:0405A4009567000057
:0405A800A576000034
:0405AC00556E000088
:0405B000436C000098
:0405B400856E000050
:0405B800294D0000C9
:0405BC00DB850000DB
:0405C000995100004D
:0405C400B56E000010
:0405C800017E0000B0
:0405CC000800000023
:0405D0002400000003
:0405D400180000000B
:0405D80028000000F7
:0405DC0020000000FB
:0405E0003C000000DB
:0405E4000C00000007
:0405E80034000000DB
:2005EC00D74A2DE9F04F0126ADF1140D02F141010490D148C1F8CF6F0768002FFCD0D14837
:20060C00C02344380360CD4B029003F108000068800804D25868000C40F0F00000E0722042
:20062C00D94FDA4C0193002587F84C02A4F1D0081846C1F8FF5FD0F80CA058F8040CC0F371
:20064C00046007F08CFF00EB2A70401C162805DA10F10A0FB8BF6FF0090000E0152000F0AC
:20066C001F0040F4F850A7F864021068800828BF4AF0406AC6494FEADA604FEA9A6580F0D9
:20068C00010000F00100086085F0010000F001008860504604F0DEFA00220446154607F085
:2006AC00F7FF00B935462A46BA4D2B68002BFCD0BF4800F10809C9F810402E600AB107F0A9
:2006CC00EDFF07F051FCB44C40F2FF32002380B22C210090A4F1400005F084FA07F0A6FE66
:2006EC00044607F0D5FF4FF0000B00B9B3462B68002BFCD0C9F81440BBF1000F2E6001D024
:20070C0007F0CCFF07F088FA044607F0C1FF4FF0000B00B9B3462B68002BFCD0C9F80C40FE
:20072C00BBF1000F2E6001D007F0B8FF07F0F8FB044607F0ADFF4FF0000B00B9B3462B687F
:20074C00002BFCD0C9F80840BBF1000F2E6001D007F0A4FF049803F0FFFF044607F098FF74
:20076C004FF0000B00B9B3462B68002BFCD0C9F80440BBF1000F2E6001D007F08FFF0499A6
:20078C00084607F0B5FB844C400040F0200084F80901084607F0B8FB40F0100084F80901B4
:2007AC00084607F0E1F8039007F072FF4FF0000B00B9B3462B68002BFCD00398C9F8200012
:2007CC00BBF1000F2E6001D007F068FF0499084607F0B2FB400040F0600084F80C0108465F
:2007EC0007F0B6FBC00040F0800084F80101084607F0C6FB800040F47C40A4F89C0108465A
:20080C0006F068FC039007F043FF4FF0000B00B9B3462B68002BFCD00398C9F80000BBF118
:20082C00000F2E6001D007F039FF4FF480002060D8F8580040F20F216FF31F40814215D9D0
:20084C00D8F80000D8F80030C0F30365C3F3034005B16D1E072805D006280EBF0720801CA5
:20086C0000F00F0045EA001007F8080CCAF38140401E02D0401E28D024E0D8F8D000810CE6
:20088C0020D24FF480412160D7F80210420AC0F3033502F0800221F08F010A4345EA020129
:2008AC00C7F80210D7F80120031263F30302C7F80120396800F0E70521F0E70145EA010075
:2008CC00386002E04FF0004020604FF40070206407F0A4FD40F03000334F84F8C800CAF3E1
:2008EC00815088B3401E03D0401E20D002211FE0304607F0F3F905460420294604F0FEFF17
:20090C00042007F0EBF98542FAD10198056825F07F4006F069FA384614300068036807214A
:20092C004FF06022280E98474FF4806020600321042004F0E3FF0EE094022243A83F0050F4
:20094C000000094044600C400420314604F0D6FF124806F049FAD8F8B0001149114B47F6E8
:20096C00180500F03F0084F8CB0F3A460D8018681068C16802208847402102980B4C0160F7
:20098C0005B02660BDE8F08F0A6008408C1300500000204300800C4040A00C40BD37860076
:2009AC0070B00C402C200940A00100109404604200A00C402DE9F04F09AFADF13C0D0090CF
:2009CC000292388801911E46ADF83400101C08BF002000F0828100274FF0010B00F1010975
:2009EC00B846DA466BE1252940F062811078521C02922D2818BFADF8228004D11078ADF821
:200A0C0022B0521C029230281CBF4246434605D1114608785B465A46491C02912A284FF03B
:200A2C00FF3516D128460B93346809900299CDF81C80E01C4B1C20F00300001D306050F8E7
:200A4C00044C08780293002C44BFADF822A0644212E0444609E0610001EBC401401802997F
:200A6C00A0F130040878491C0291302801DB3A28F1DB0B93294609912E282BD102990878B7
:200A8C0043462A2801F10101029111D1099330680794C01C20F00300001D306050F8045CF3
:200AAC00002D48BF454608780995491C029112E045460AE0690001EBC50140180299A0F14F
:200ACC00300508782B46491C0291302801DB3A28F0DB099307940AB122460B926C2804D02C
:200AEC004C2818BFADF8208005D102990878ADF820A0491C029103A9CDF8288007AB0E91A2
:200B0C0064280C9300F08B80692800F08880BDF834C0752872D078286ED06F286AD070284B
:200B2C0050D063283DD073281ED0019802990128A1F10101029115D96B490C68B5F1FF3FEA
:200B4C0003D0A84288BF6D1C00D8019D0995684602A9324607ABA047C71902990A9801F16F
:200B6C00010974E040462AE030680299C01C20F00300001D306050F8040CBCF1000F01F1A6
:200B8C000109014608B956A001460E9107F006FC0A90B5F1FF3F5BD0A842C4BF281C0A906E
:200BAC0056E03068C01C20F00300001D306010F8040C5D468DF80C0002990A95584601F1A9
:200BCC00010945E0082035680B90E81C20F00300001D306050F8041C0822102307A803F04F
:200BEC0083FD401E0E904021017002990E9801F1010929E0082302E0102300E00A2302996D
:200C0C00306801F10109C01C20F00300001D306050F8041CAA42BCBF2A1C0B9210E002995B
:200C2C00306801F10109C01C20F00300001D306050F8041CAA42BCBF2A1C0B926FF009035B
:200C4C0007A803F051FD0E900C9D281A0A90079CBDF82250241A65B906E06846202101AACF
:200C6C0006F0D8FB079C7F1C641E0794F5D50A9800E007940546401E0A9075B9BDF8220015
:200C8C00E8B10798401E079019D46846202101AA06F0C0FB07987F1CF4E70E98411C0E912C
:200CAC00017801AA684606F0B5FB0A987F1CE1E7684601AA06F0AEFB7F1C09F101094A4684
:200CCC00029812F8011C401C002902907FF48BAE009808B14146017038460FB0BDE8F08FDA
:200CEC00286E756C6C2900C0348D00002DE9FE439C4C0F460546F80B80F00E81B80880F04A
:200D0C00AD80B80F6ED2E07A00284FD138094FD30025012665706079667210B1284606F097
:200D2C00C3FE914807F05AFC90492A4604F14C0007F04AFDA07901281FD1E079E8B9DFF8F5
:200D4C003082266AD4F81490D8F8000070B107F007FBA0EB09004346000B8619E061186863
:200D6C00B6EBC01F28BF256208D2266204F1CC004FF0005107F060FA31E0A67104F1380020
:200D8C0040F60901018094F8451001F0F00141F0010184F84510658794F8441001F0F00111
:200DAC0084F84410E563734E306018E0380914D2B80BC0F0CE8004F1280007F010FD061C9B
:200DCC0008D0706830B17568F068B6F910106CA20CCAA84727F40057BBE00020E07227F009
:200DEC000807B6E0644904F14C00002207F0ECFCE86840F6C411814215D1042006F06EFFC8
:200E0C0088B166697EB1A06968B907F0A9FAA061864226BF801B401E801B000BE860E868E6
:200E2C0000F58D70E860E07958B10220ADF80000684606F009FE0026E671BDF80800A4F8C2
:200E4C009C000120607020790026401C20711920267207F03BFB27F000577AE004F1300959
:200E6C00484607F0BCFC061C4DD005F0C5FC4FF00008326AC6F820807068B0B196F8240008
:200E8C0042F002020023401E07D0401E03D0801E06D13DA002E03EA000E03FA090E80C0032
:200EAC007568F068B6F91010A847B4F93600401C6FF31F30E086484607F052F9F068B0F90C
:200ECC008C10B4F9362091421DD1217801291AD090F88E5095B9056885B1E1680968B1F146
:200EEC00FF3F10D0254909686830B5FBF1F107F06DFDF068683007F065FD04E080F88E80AB
:200F0C00404604F015F9484607F069FC27F0020708B147F002071CE007F050FD014604F1BE
:200F2C002C0007F05CFC0646356A084607F042FDA8080CD25EB1306AA8433062706830B14E
:200F4C002A46F068B6F9101075680023A84727F4804727B104F1CC00394607F06DF9BDE803
:200F6C00FE83C04630120020914B000015780000E82D00200010044091280000208D000024
:200F8C000000000020000000000000000000001000000000000000400000000000000020B5
:200FAC00F8B5A0F2013517460E46022D40F20C818649874C874A884B2D1F0F2D04D9143D15
:200FCC004AD0AD1E1CD011E0DFE815F0BA00B500EB00DB00AE00A700FE009F0098001000A8
:200FEC001000900086007A006F006200282880F2EB80022E40F0E880398805F033FCF8BDE5
:20100C00012E40F0E1800A469078012800F0DC80D1783878D07081B9002800F0D5801078CF
:20102C00012800F0A080042800F09D80062800F09A80052800F09780F8BD3878002840F009
:20104C00C3801078032800F09980072800F09680052800F09380F8BD012E40F0B580387827
:20106C00012840F0B180254605F1F00007F026FA002840F0A98004F13E01002003F08AFA26
:20108C00002840F0A18004F1CC0007F0ACFBF8BD022E40F0998038880A28C0F29580B0F5E0
:2010AC00486F00F39180114614E0022E40F08C803888B0F5FA7F80F2878011460880F8BDC7
:2010CC00022E40F08180388806287DDBB0F5486F7ADC1946891CF1E7022E75D1388806286B
:2010EC0072DBB0F5486F6FDC1946E7E7012E6BD13878022868DA1146891F0CE0012E63D1EE
:20110C003878042860DA093105E0012E5CD13878082859DA08310870F8BD012E54D13878B5
:20112C00042851DAC91DF6E7012E4DD1387804284ADC891DEFE7022E46D138881031BDE7D2
:20114C00012E41D10A46D07801283DD091783878907061B9002837D01078012803D00428C2
:20116C0018BF052830D1012007F02AF8F8BD387850BB1078022818BF052825D107F03EF9DA
:20118C00F8BD254600211F2205F18704204603F069F839463246204602F09CFC0020EE7120
:2011AC000EE0254600211F2205F16804204603F059F839463246204602F08CFC0120AE7145
:2011CC003146224604F060FAF8BDC0469A0B0020980B0020DC0B0020D80B00202DE9F84338
:2011EC000446DFF82C82DFF82C92A2780025101C00F0DD80801E00F0B580401E012840F24B
:20120C008880801E52D0401E26D0401E03D0083800F0EF80F0E0464606F1F00007F0E3FABF
:20122C006078002840F0E880E088F082208930836089708306F1CC0007F040F9002840F0AD
:20124C00DB80B36A002B00F0D7801B68F08A318B728B9847BDE8F883A08806F044FA4646FB
:20126C002946062206F1380002F0FCFFF58235837583A079707306F1CC0007F0B4FA06F12D
:20128C00F00007F0B0FA01254FF6FF707779B0824FB9A079082814BF04200520B0702846BA
:2012AC0006F08EFFA8E00320B070A5E0607840BB211D0A68464606F138000260898881809D
:2012CC000627B7706089B082E089F082208A3083608A96F83E507083E078012D30730AD15E
:2012EC001F2004F0EDFF4FF47A71024640465143CC3005F0BDF9E0786289211D05F048F9D5
:20130C007CE06078312870D14C4604202070284624E06778002F68D14646718AB078032A18
:20132C00444613D02279677921B9012A14BF6571257106E0174304D004F1A80005F098F93E
:20134C00A078072814BF0420062007E0062807D02079002808BF0325D9D00220A0704DE079
:20136C000725D4E76078661C00283ED14246E7789078D1799FB9022816D0072814D0062807
:20138C0002D1517901290FD103280DD002F1A80007F094F840B9012006F012FF04E08732B6
:2013AC00284604F071F930703078F0B924E06078D8B946460220102106F1480205F070FB77
:2013CC000320102106F1580205F06AFBE41C06F12C00A7882168878006F16802016001203D
:2013EC00B179B07004F050F940B108204C46207004E0A08807F0FEF8012D06D14646706ABB
:20140C0018B1016809B1B0788847BDE8F883C046980B00209A0B00202DE9F04F0128ADF113
:20142C00140D40F0F280DFF81492D9F8DC00012840F0E9800220C9F8DC0007F0B7FA0290F8
:20144C00012004F083FC20B101210646C9F8DC10D5E007F0A7FA03906E484FF00008C0F86B
:20146C000080012006F03AFC012818BFCDF8008004D1404603F066FF0120009066486E4C82
:20148C00C0F800801934D4F8FF0F112007F012F900280CBF46460126102007F00BF908B124
:2014AC0046F002060F2007F005F908B146F004060B2007F0FFF830B1584800685849006BB7
:2014CC000246088890470A2007F0F4F80028404618BF01204FF0805B0BF5DC7528B12868CA
:2014EC005049006B0246088890474F480127076028688069014646F0200088474B48076028
:20150C0007F0D2F800F001010191400815D2484807F01EF88246BAF1040FF8D0BAF1010FA5
:20152C0006D1DBF8D801406802464148032190474049086820F003000860404600F080F846
:20154C002868D4F8FF1F806B8047019801280ED0BAF1010F06D1DBF8D80140680246344809
:20156C00394690473349086840F0030008602A480760286840690146304688470B2007F0C2
:20158C0099F828B128682649C06A0246088890470A2007F08FF828B128682249C06A02460F
:2015AC0008889047204807600322C9F8DC201F4BC3F800802868406B014630468847012872
:2015CC00F8D1042004F0C2FB124807601A48D4F8FF1F01688909FCD30098012802D1384678
:2015EC0003F0B0FE07F05AF8082004F0AFFB06460398C9F8DC7007F0D1F903F06BFD029885
:20160C0007F0C8F902E0042600E00126304605B0BDE8F08F0C40094000022243B8010010DF
:20162C00CE8A0000CA8A00002820086080010443004003402422084014100940B81800200C
:20164C002DE9F84FDFF8E8B10746ABF13500DFF8D4910068800880F0D68005F0F1FE064671
:20166C0077480830D0F8008000254FEA28725FEA985002F101020AD2C6F13E0016F10A0F0F
:20168C004FEAE000D8BF08208242B8BF021C624BD3F87C01C0F3046006F061FF04461868E1
:2016AC00C0F3044006F05BFF12198246162A05DA12F10A0FB8BF6FF0090200E01522574B0F
:2016CC00574802F01F0141F4F8511980006810F0030F18BF0125C00828BF45F002050FB114
:2016EC0045F00405494691F90700301A052804DA8879A84208BF888865D0DFF82CE10F2E13
:20170C00A6F10F0C25DB0CEB0610A0F1F00C4FEA2C27072F88BF07273C46062C88BF062415
:20172C005EF82400042303EB84037446E3581B1A03F0FF04E80824BFC3F307200444A808BF
:20174C0024BFC3F307400444680828BF04EB136401E0002427465EF827E0E8080EF0FF03D9
:20176C0024BFCEF307200344A80824BFCEF307400344680828BF03EB1E63A4B2ACEB072788
:20178C00BAEB020004FB07F404F1800403EB1423D8BF0120342208F0FF0742437A43B2FB03
:2017AC00F3F04FF6FF72824238BF101C802E80B2888005DA16F1800FB8BF6FF07F0600E005
:2017CC007F26CE718D71194A12681F280A604FF0000208D340F2FF11814206D24008521CDE
:2017EC008142FBD301E01F208880124F0F38000942EAC00247EA0200CBF8FB0F0026CBF89C
:20180C00FF6FBDE8F88F0D4F0B4E494608203760891D0870BDE8F88F3C1100506E62084020
:20182C0024220840F42D00209C130050082009403500094000E7A48030100940FDFDA400AD
:20184C00AC3F00502DE9F0411C4615468C4208BF854282BF00230022E5E0002C08BF002D76
:20186C000AD100290EBF00286FF000006FF0000100F0E1F8BDE8F0815FF000085FF0000E11
:20188C00002C08BF8D429CBF2C1C0025070C47EA01470E0CB44208BFBD429EBF5FEA044462
:2018AC0044EA15445FEA0545070A47EA01670E0AB44208BFBD429EBF5FEA042444EA15640F
:2018CC005FEA0525470847EAC1774E08B44208BFBD4200F29380870847EA81778E08B44276
:2018EC0008BFBD427CD8C70847EA4177CE08B44208BFBD4266D8070947EA01770E09B44274
:20190C0008BFBD4250D8470947EAC1674E09B44208BFBD423AD8870947EA81678E09B442C9
:20192C0008BFBD4224D8C70947EA4167CE09B44208BFBD420DD8E60146EA5566EF01B14203
:20194C0008BFB84201D3C01BB14158EB08085EEB0E0EA60146EA95664FEA8517B14208BF00
:20196C00B84201D3C01BB14158EB08084EEB0E0E660146EAD5666F01B14208BFB84201D34E
:20198C00C01BB14158EB08084EEB0E0E260146EA15762F01B14208BFB84201D3C01BB1415F
:2019AC0058EB08085EEB0E0EE60046EA5576EF00B14208BFB84201D3C01BB14158EB0808EB
:2019CC004EEB0E0EA60046EA9576AF00B14208BFB84201D3C01BB14158EB08084EEB0E0E19
:2019EC00660046EAD5766F00B14208BFB84201D3C01BB14158EB08085EEB0E0EA14208BFD4
:201A0C00A84201D3401BA14158EB08085EEB0E0EA34208BFAA423EBF2D0A45EA0465240A75
:201A2C0089D3734642461E4617460B46024631463846BDE8F08170472DE9FE4F754C04F1C8
:201A4C002408404606F0CBFE16460D46009006F0B5FF06F00107B5F1FF3F01900CD1A06AC6
:201A6C0020B9B4F93600401C05B202E0A06AB0F91050002084F8A500A36AA81005EB5070E0
:201A8C0020F007002D1AE80000EB4510251805F59C75AB4200F086800098854249D00028E9
:201AAC004FF003073FD04FF0000904F1A80BCA46006885421ED1584606F026F800980768EB
:201ACC00C0F800A00198009706F074FFB0080ED297F8240040F0040087F82400684606F043
:201AEC003FFB014608F10C0004F0A6FF01E04FF001098327B9F1010F03D0009800680090CA
:201B0C000EE0009991F8240040F0040081F82400684606F025FB014608F10C0004F08CFF25
:201B2C0000980028C4D1832F25D0019806F042FF21E004F1A80005F0E7FFB0083ABF606AD9
:201B4C00006800206062019806F034FF08F10C05009991F8240040F0040081F8240068469E
:201B6C0006F0FEFA0146284604F066FF009808B1B008EDD28327207A70B9274806F02EFD98
:201B8C00022104F1CC0006F057FB607801283DD0224806F023FD39E004F1CC00022106F08C
:201BAC004BFB33E0B00803D3606A00900023636295F824100120B840084385F8240006F034
:201BCC00F1FE002F054614BF1548164805F03CFF019806F0EFFEB00814D3009890B108F1E5
:201BEC000C04014691F8240040F0040081F82400684606F0B5FA0146204604F01DFF00985C
:201C0C000028EED1284606F0C9FE83273846BDE8FE8FC04630120020F90C00003D000000A2
:201C2C0001000204010001042DE9F843814606F02FFD002100B901216B4E30680028FCD010
:201C4C006C4D01242D1DEF6A346009B106F026FDDFF89881C7F3072008F1BC01086006F0AB
:201C6C0017FD002100B9214630680028FCD02F68346009B106F012FDC7F38440C8F8C0008F
:201C8C0006F006FD0146002001B92046014630680028FCD0ED69346009B106F0FFFCC5F398
:201CAC008120C8F8D000B9F5C061C8F8B81000F0968098F8D80068B9C8F8D410D8F8C000CD
:201CCC00C8F8C800D8F8BC70C8F8C470D8F8D060C8F8CC60D8F8D410D8F8BC60002954BFB8
:201CEC0002206FF00100454605F1C8031A6801EB41014018411000EB917002EBA0021A60BC
:201D0C00D5F8C810C5F8C46000291CDD1E293DDDD5F8CC0030B93429B4BF15391E21C5F812
:201D2C00C81025E02A29BABFD5F8C8000B381E20C5F8C800D5F8C4003F28B4BF401C3F202D
:201D4C00C5F8C4001FE0D5F8CC00032812D011F10B0FC6BFD5F8C8000B30201CC5F8C8001F
:201D6C00D5F8C4000028CCBF401E0020C5F8C400032009E011F1150FC6BFD5F8C800153083
:201D8C00201CC5F8C8000020C5F8CC00B5F8C400174E30214FF47F4208230090304603F07E
:201DAC0021FF009404214FF400321123304603F019FFB5F8C80004214FF4F8021223009078
:201DCC00304603F00FFFB5F8CC0020214FF440620A230090304603F005FFBDE8F883002077
:201DEC0088F8D800BDE8F88300800C40B818002000A00C4000A00C402DE9F04FADF1840D47
:201E0C0000F0A2FB03F05EFE0026012804D106F03FF8022808BF01265E490868C0F38150D6
:201E2C00012806D151F80C0C0127010E07FA01F006435948594F5A4D00783868C0F34607BB
:201E4C002F6003F03FFE2C46012805D106F020F8022804BF7F1C27603FB1FF2204F14001E2
:201E6C003846401E01F8012BFBD14E4800684FF0000900F0FF01FE291AD0DFF828C100F092
:201E8C00FF03494601229F4240F2818002FA03F31E427CD100F0FF00201880F840105CF88C
:201EAC00040F43EA0909491C00F0FF03FE2BEAD1092001F023F93B4800212422082360607E
:201ECC0001A806F063FD4FF0010804F1240001AA8DF81C80414606F055FD236843B3002753
:201EEC0094354FF0040BBA4608FA07F0064219D119EA000F04BF07F0FF0141F4C04105D0BD
:201F0C00E019284990F8400051F82010264801F03DFBF8B24FF0FF3105F0EEFE2368C5F831
:201F2C0000A001E0C5F800B07F1C2D1D9F42DBD30AA800213022082306F020FD002520206B
:201F4C0010210AAB1290194A009504F1080006F011FD16A828220823294606F007FD052033
:201F6C002B4616AA1C9012491D9304F1600006F0F9FC104951F80D0C20F4F85040F4005092
:201F8C0041F80D0C4746C1F8FF7F0B4E376021B0BDE8F08FB43F0050042E002080120840CB
:201FAC00F82B0020EC8B0000007FC767217D0000715E00000D300940080009402DE9FC4711
:201FCC001E4692468146009106F0F8FC5D4CB4F93620B4F934100AAF891A40F6F8720A4094
:201FEC00082A02DB06F0E6FC41E0B4F93410491C6FF31F31A186B4F9348006F0DBFC4046EA
:20200C00811000EB517121F00701401AC10001EB4011651809F1680005F076FD05F59C75B3
:20202C0085F812A00098A8606E60C5F80C90A5F8108097E80C0047A696E8030005F1180763
:20204C0000261040194087E8030004F1240085F824600768002F58D1294604F0EDFC48B905
:20206C00B4F9340000F6FF706FF31F30A0866FF0010863E0A9F88C8006F0A0FC89F88E60DE
:20208C00A17A41B1617831B10121E172A672E6712179491C217106F08DFCA06A00284DD128
:2020AC00607870BB207A012848D006F087FC0646607AF8B9A86803F06DFC244B2249E26856
:2020CC001B68086040B9304606F074FC04F1CC00042106F0B1F831E00968D26804F1A80056
:2020EC00891AB1FBF3F106F071FC04F1A80006F069FC20E0304606F05DFC1549012008708A
:20210C001CE0192006F0E2F918E006F057FC0646294604F1240004F08FFC002818BFA9F879
:20212C008C8008D1B4F934006FF0010800F6FF706FF31F30A086304606F03CFC4046BDE85A
:20214C00FC87C04630120020E82D0020208D0000E42D0020F1EFFF9F200000002DE9FC4184
:20216C005D4C564D564EDFF85C81594F94F8E410481E0B2800F29F80DFE800F0772C43063A
:20218C002343062343067260042907D001220A2945F8212C14BF0220032004E02021012047
:2021AC0045F8211C024684F8E200002045F8390C0827C5F8FF7FC5F8F37F45F8392CBDE871
:2021CC00FC81052914BF09200620002584F8E40035606CE094F8E1700120383D002FC5F861
:2021EC001B0004BF0620002102D00021F160032084F8E400032045F8010C316030688008C9
:20220C0055D294F8E400012503280DD00021404660220523009103F0E5FC94F8E400062899
:20222C0014BF0A200720D1E702200090002160220523404603F0D6FC0420C7E7224900268B
:20224C0022480E60012505600E2000F0EDFE022004F09AFD84F8E45084F8E360BDE8FC81C8
:20226C00002038600C2578601FE01A48006800680146202088472C3D41F61D560F200021A7
:20228C004FF4C072072345F8010C4046C5F803600225009503F0A6FC404600214FF4C07236
:2022AC00072303F06FFF0120386084F8E45004F1780006F087FBBDE8FC81C04639400C404C
:2022CC0038600C4000A00C402C500C4004800C4034600C40A0010010B818002070B5ADF146
:2022EC00200D05F075F94C4E06F1200006F03EF90A21F0601F2004F0B5FA0820ADF8060034
:20230C000125ADF8080000248DF800502946ADF802406A468DF804503220ADF80A004FF4C2
:20232C00FA70ADF80C0040F20530FEF739FE40F2063002210DF10202FEF732FE40F20730C8
:20234C000D2106F13802FEF72BFE4FF442700E2106F14502FEF724FE4FF44470294601AA6A
:20236C00FEF71EFE40F2113002210DF10602FEF717FE40F21230022102AAFEF711FE40F221
:20238C00133002210DF10A02FEF70AFE4FF44570022103AAFEF704FE06F038F9049403261D
:2023AC008DF8154002208DF8175004218DF8140004AA8DF816604FF4816004F039FA4FF434
:2023CC008060294605AA04F033FA40F2024029460DF1150204F02CFA40F2034029460DF1DE
:2023EC00160204F025FA40F2064029460DF1170204F01EFA06208DF8180006A805F03CFDFD
:20240C0000F0B8F904F07CFE06F006F905F078FE04F0C4FA08B070BD040F00202DE9F0432E
:20242C000646880FADF1140DC0F08180444D424B40484FF000091C35C5F800905F1D45F8F8
:20244C001C0C387810B1012005F02EFB3D4806F0C5F8194691F844404A4640F60A0301F12F
:20246C00380091F845704A8704F0F004CA63804681F84440B468038007F0F000628040F099
:20248C00010081F84500241D00E03C1D276817B138888342F9D1C4F80080607A00F0F0005B
:2024AC00607201F1240006F09AF980680088DB1F83421ED05B1C83421BD006F118000788BD
:2024CC00CFB17283F26196F8242096F8257002F0F00286F8242007F0F00242F0010286F8F1
:2024EC002520C86398F80D0000F0F00088F80D0001E0C1F81490694605F0B6FA684605F021
:20250C00BDFF28680028FCD0C5F80090012005F0E5FB012808D0607A00F0F00040F0010040
:20252C006072064806F05AF8B06845F81C0C05B0BDE8F08301010E0430120020A55300006F
:20254C0000100440F90C00002DE9F041434C94F8E700ADF1280D00286CD1384F387B012535
:20256C000021242284F8E750082384F8E60001A806F0F4F9002604F10C00069601ABADF808
:20258C0014602F490796324606F0E4F92D4904F1300001AB324606F0DDF92B4904F1540013
:2025AC0001AB324606F0D6F9B868014628468847DFF89C8025487B7B0078D8F80410C1F31C
:2025CC0081571BB1032F03D184F8E150032F16D0022F14D0012F26D103201E4C00903146B0
:2025EC004FF040521C23204603F0FCFA009531464FF400720923204603F0F4FA13E0022027
:20260C0004F0DAFB032F0CBF4FF47A7142F21071114800685434B1FBF0F1204606F0D6F904
:20262C00204606F0CFF9D8F80000C00802D2304604F0C2FB0AB0BDE8F081C046908C0000E5
:20264C0063470000DD3D000071410000042E0020B03F005000A00C40208D0000B8180020DE
:20266C002DE9FE430AAFADF808303B880E4615460146002B18BF0B2078D172685078177801
:20268C00DFF8EC80002407EB002742F64D20B84257D01B38B84254D01A30B8423DD042F6EE
:2026AC000219B94516D0801CB8425BD1BDF80800012844D1297831F001003ED1F0680170B7
:2026CC00287800280CBF02200320414609684968884747E00093BDF8083008462A463146C2
:2026EC0003F0CAF9041C40D168782F7807EB0027708904F031FD002834D0012F0CBF0223E0
:20270C0003234146096802AF0E6800970195027A417A10464A46B04724E0BDF8080001283D
:20272C000DD1287830F0010107D1414609684968224600B101221046CAE7802415E00D245F
:20274C0013E0708904F0A8FA60B14146096802AB0E6800930195027A417A234610463A4620
:20276C00B04704460CB905F017FC2046BDE8FE832008002070B504F031FD414C0028A4F1DA
:20278C001804E06079D004F029FD2061002808BFE06870D004F022FD0028606167D0E068FB
:2027AC0005F0D2F8206905F0CFF8606905F0CCF8324A04F16C001D2103F0A0FDD4F8881078
:2027CC00022003F07FFC657984F82050A67984F82160B4F83601208304F59E71E161E2794C
:2027EC0084F82C20012184F82210237A84F82D30B4F87601A0840020A06284F8385084F8D6
:20280C002E1084F83960B4F8A661268604F5D676666384F8442084F83A0084F84530B4F8B9
:20282C00D651A587206484F8501084F8460084F85110B4F8F661A4F8486004F5FE73E36442
:20284C00657A84F85C5084F85200A67A84F85D60B4F82622A4F85420A065032084F85E1028
:20286C0004F1600103F02EFC05F048FD70BDE06805F0DAFB206905F0D7FB70BDC48C000093
:20288C00C0140020F8B505F053FC404E3E4F0446A00823D3B96A09B33D4600208B690A6A5A
:2028AC00A86204EA0300104340F0020006F1080208628B6910689843106001F1180090E8E8
:2028CC000C0030681A1C9043306005F1300004F0B3F8022105F1CC0005F0AEFCB86AA1089B
:2028EC0015D200F118020CCA002122400B40002B08BF002A0BD08169056A0C40F8622C43D1
:20290C004FF48041046207F1CC0005F095FCB86A002837D107F12404204605F060FF051CAA
:20292C0030D0F868E968884226D1A86803F032F817490860E0B906F10801A8690A681043B5
:20294C000860326805F1180393E80300081C1043306000233361A86846F80C0C06F11000AF
:20296C0000680028FAD0204605F0FAFBBD62F8BD086802F0DDFBF8BD07F1CC004FF4805106
:20298C0005F05AFCF8BDC046301200200C100440E82D00202DE9F047ADF1180D00F0FAFF35
:2029AC003A4D4FF0030908274FF6FF78002605F13E0A2C4605F076F920BB009601A80DF1FC
:2029CC0006016A4604F0FCFAE0B9BDF80400102814D160789DF8061088420FD1009801888D
:2029EC00884509D14088C00B08D3042005F12002014604F055F801E002F0F2FF009808B1DD
:202A0C0005F05AFB208A41082DD320F0010063792179208253EA010225D073B9207A637A6C
:202A2C008DF8070005F132018DF808300A680DF109031A608988998001E08DF80790A07AE1
:202A4C008DF80F00E37A8DF810300DF1070005F0CBFD38B1636AA77023B11A6812B119688B
:202A6C0038468847208A810807D320F0020020825146304601F08EFD208AC1089AD320F0C3
:202A8C000400208205F08CF994E7C046980B002038B5882005F05FFE3A483B4CB23000688C
:202AAC00C0F3C032606A58B900200121656A2073012A216205F10100606208BFA16238BDC0
:202ACC00217B236A092847D3092832D00A284DD1A0692A4A4FF4E02104F004FCA0692849C4
:202AEC0005F03CFE0025E571A16A207B012919D00146AA2911D0FA290FD005F049FB217B95
:202B0C001BA005F0ACF9207BF02810D0E0280ED0206905F01BFFE57109E00121A170E5707C
:202B2C00207104E0A5620120A070FE23E37028461BE09A4209D1842916DBAA2914D0FA29D1
:202B4C0012D0F02910D0E0290ED00AA005F087F90120A062606A07E0451E02FA05F55A40C1
:202B6C0029432262C9B22173401C606238BDC04625640A00503A25640A00C0460E000680E7
:202B8C004D3600000E20024008020020F0B5ADF1340DFFF7D9FC334908682822082340F02C
:202BAC000200086001A8002105F0E0FE2E4E2F490524002301AA079406F1CC0005F0D2FEF4
:202BCC0000213022082301A805F0D8FE0025FF271921274AADF81C5001AB099706F14C0041
:202BEC00009505F0C7FE2822082301A8294605F0BDFE2049079406F5807001AA2B4605F03D
:202C0C00B1FE01A829463022082305F0B7FE0124ADF81C40099706F168001A2101AB164A4E
:202C2C00009505F0A7FE15492A4606F1A800134605F090FE124805F0D1FC02F043FF2B464F
:202C4C00012808BF231C86F8A550B57135727572B572F572F47173714FF6FF70A6F89C004D
:202C6C000DB0F0BD0020094030120020158200001578000065330000F9530000917D0000FD
:202C8C003D0000002DE9F04390460A68D8F800401678814600271D46ADF1140D3846531CBF
:202CAC00242E0B6053D112F8016F5B1C4C2E0B600ED1AA68E41C24F00304241D54F8040CA8
:202CCC00494602F091FA2968EF600127091A2960462E1AD1E41C24F00304241D54F8040C11
:202CEC00E41C029024F00304241D54F8040C002749460390AA68ADF8047001A800F038FF3A
:202D0C002968EF600127091A2960532E1FD1E41C24F00304241D54F8040CE861C8F8004081
:202D2C00288B0090A968EA69D9F800004346FDF741FED9F80040002714B10119C9F800106B
:202D4C00D8F800402968EF60091A01272960662E0AD12B8B23B9E41D24F00704083403E063
:202D6C00E41C24F00304241D1FB9E9690E700127EF60C8F8004005B0BDE8F0832DE9F043B6
:202D8C000646ADF11C0D05F0DDFD03F0E5FF4FF000090546CDF8009005F09EFC30F00100D6
:202DAC0002D00098A84202D16FF0040059E070684C4658B1B0F1FF3F05D001A903F0B4FFCD
:202DCC0030B107464CE04FF0FF3000E02046019005F0B4FD0199012701EB000800E0019378
:202DEC006868019905F0A6FD00282ED003A803F06DFDD8B99DF8100002A903F04DFD88B938
:202E0C00B368BDF808009DF81210059A984748B19DF81270B773BDF80800B081059B33613D
:202E2C004F4612E00599684604F004FA0198641CB0F1FF3FD4D00028D2D005F07FFDB8EB47
:202E4C00000302D001989842C9D2009905F1080004F082FB24B1686805F078FD641EFAD11F
:202E6C00384607B0BDE8F083FEB54D681E46144608AF68783B88BA882D78002705EB002556
:202E8C0013BB42F64D20A84208D02B38A84205D01030A84202D0401CA8421BD1488903F0DD
:202EAC00FBFE2849D1F800C0002808BF378042D000960194027A417ADCF80040012310466B
:202ECC002A46A047074636E042F64B20A84218BF0B2036D142F64B20A8421FD0401EA842D2
:202EEC0016D042F60812AA420CD0001DA84203D0521EAA4206D01EE001203080C868007843
:202F0C00207018E002203080C8680088208012E004203080C868006820600CE0402B0EDAD6
:202F2C00C3F13F009042D8BF82B23280C8681918204600F0CFFD1FB905F02EF800E00727BF
:202F4C003846FEBD20080020FEB501F095FB344E344C002504F098FE38BB009501A80DF1D0
:202F6C0006016A4604F015F8D0B9BDF80400102807D120789DF80610884202D1009805F0CE
:202F8C0057FB009860B105F08BF809E0606904F07BFD071C04D002F0FDFE384605F038F80D
:202FAC00606905F0C3FC0028F0D06089C1080ED320F0040061786081062908D1E07818B90E
:202FCC00357004F07DFF01E004F0E6FF6089810805D320F00200608104F02CFE60890109C8
:202FEC00B8D320F00800A7786081002FB2D030780028AFD004F09AF8031C05D01878597847
:20300C009A78DB1C01F0DEFB607A217A8842A1D0608940F008006081206905F097FC99E78E
:20302C00501E0020040800202DE9F843044605F0C5FC81462D48021992F8ED10491ECFB2B3
:20304C00002F82F8ED704BD12B4D05EB84052E78698836F07F0788461AD1F10911D24FF039
:20306C008054D4F8B801806901464046884704F5DC742068406B0146404688470228F8D15B
:20308C0021E000EB8800D0F80011002088471AE04FF08054D4F8B801006A01464046884750
:2030AC00D4F8B801806A014640468847D4F8B801006B01464046884701210D4A0D4811602E
:2030CC0001688908FCD306F03F003F2801D0FFF7ABFF687800F03F003F2801D0FFF7A4FF2E
:2030EC00484605F067FCBDE8F883C046B81800202820086028200840A08A00002DE9F04117
:20310C00064605F05BFC2D4D8046A91991F8ED00421C002881F8ED204AD1294C04EB86047E
:20312C00277807F03F003F2801D0FFF7E7FF607800F03F003F2801D0FFF7E0FF668837F071
:20314C007F001AD1F80911D24FF08054D4F8B801406901463046884704F5DC742068406BCC
:20316C000146304688470128F8D121E005EB8605D5F80011012088471AE04FF08054D4F8A2
:20318C00B801C069014630468847D4F8B801406A014630468847D4F8B801C06A014630468E
:2031AC0088470121074A0848116001688908FCD3404605F0FFFBBDE8F081C046B8180020B6
:2031CC00A08A0000282008602820084070B52F4C0646A078002858D0B4F93600B4F9341051
:2031EC00884206D0B6F98C1029A20CCA304600F081FA05F0E3FBE178002937D0491EC9B218
:20320C00E17099BB05F0D6FB0025A570607840B1284601F08DFF06F130004FF0FF3105F0BE
:20322C0089FB06F1300005F07DFB06F1680005F075FB04F1CC0005F06DFB04F14C0005F052
:20324C0065FB04F5807005F065FB04F1680005F05DFB04F1A80005F061FBE5602570307CA6
:20326C00012812D10E20FFF7DFFE70BD05F0A2FBE068864204BF0020E06006F1300005F027
:20328C0051FB06F1680005F049FB70BD3012002002000000000000702E4B80B50A46002817
:2032AC0008BF597A02D0587201461A72ED3924D011391ED0491E3BD1FF2816D09F7A0028E6
:2032CC0036D1002F08BFFA2A0CD0012F06D1AA2A04D10620002105F039F81AE015A005F024
:2032EC0011FB80BD7F1C9F7213E000209872FF201BE0FE281CD1FE2017E0ED2812D09F7A5E
:20330C00B0B9002F08BFFA2A06D0012F10D1FA2A0ED102F02FFE80BD7F1C9F72187A04F0A6
:20332C00BBFA02E000209872ED20187000F0D4FF80BDC0464661696C656420696E697469A3
:20334C00616C697A696E67206B6579626F6172640A00C04609020020F8B505F02FFB294C86
:20336C000746103CD4F8A00010F4602F29D0400CC5B2680807D2A80803D2E80828BF022521
:20338C0002E0012500E000256E1D70B202F082F8D4F8A03005F111010120884023EA000160
:2033AC003846C4F8A01005F005FB04EB8500D0F88C704FB1D4F8880013A20CCA3146B84795
:2033CC0002E0384605F0F6FAD4F8A00020B104F58070002104F030FF94F8A50080080FD397
:2033EC00D4F8987037B1D4F8880009A20CCA6FF00101B84794F8A50000F0FD0084F8A50091
:20340C00F8BDC0464012002000000000000000080000000000000080F8B505F039F905F022
:20342C0043F9044604F00C000C2845D0E0081ED203F0B0FF234E376805460120014604F080
:20344C00A2FB31686943884211D21F4C8220B0FBF7F0291A204605F0B9FA204605F0B2FADA
:20346C000120FDF7D9FF204604F04EFB25E0200922D21648610939BF016821F001010168E9
:20348C0041F0010102460160D2F898004FF0805440F00300C2F89800D4F8B8018069014695
:2034AC0020208847D4F8B801094C806B2168804701202060206800E030BF05F0EFF801F017
:2034CC002DFBF8BD208D0000C41800208C2108402C2009402DE9F0412B4C0546A41C20786F
:2034EC001F4690460E46ADF1300D012803D0FFF74DFB012020705EB1B8F1000F6E6007D0FF
:20350C00C5F8088005F05AFA617819B105F052FA002033E0491CC9B2617005F04BFA0124EA
:20352C001FB9684604F0B2FF6F46386828607868E860387A00217822287405F1180000F048
:20354C0091FE03A800212422082305F01FFA8DF8244005F13000002103AA05F013FA03A8FB
:20356C0000212422082305F0F9F90649099505F16800002203AB05F0EDF928460CB0BDE801
:20358C00F081C0466F87000030120020F8B50D46EEB2290824BF26494D40264BB400195909
:2035AC0085EA01020240C2F3006C234A00EA05078143FF323A4000F4E0270A43B7F5E02F55
:2035CC0001D1510E15D300F4E0215CEA010710D002F4E027B7F5A02707D0B7F5803704BF36
:2035EC0022F4003242F4A02203E022F4803242F4C0221A51114CC10D04D3A4F18001C5F381
:20360C0080528A55000E11D305F0D8F9290E03D201210022B14002E00121B1400A4650342B
:20362C0023688B431A43226005F0C4F9F8BDC046006000A000100840007F077F802002409A
:20364C00B0B52B4C234D641EA0694FF4E0212A4603F048FE204AA0694FF0005103F042FE64
:20366C001E4AA0694FF4000103F03CFE1C494FF4804008601B4800220270A378E078217988
:20368C00012B23D06079012805D1E7791FB9A1796271ED201BE04FF4527005F05CF8A069A3
:2036AC00114A4FF4E02103F01DFEA0694FF400012A4603F017FEA0694FF000512A4603F090
:2036CC0011FEA069094905F049F8B0BDA270FFF7E3FDB0BD0E0000800E0000A00E00808032
:2036EC00E02002600E2002400E0005809D2A000009020020F8B51F4616460D46044605F067
:20370C0051F92649B1F93420521B04D4B1F93620AA4204DA0CE0B1F93620AA4205DAB1F976
:20372C003620B1F934309A4202DC05F037F931E0AA1005EB527222F00702AD1AEA0002EB02
:20374C004512891801F59C7101F12405091D91F8202012F0070F17D1114A0B689A4202D0DC
:20376C000B68A3650A6004F1500181E8C00005F015F904F130004FF0FF3105F0DBF804F195
:20378C00600595E80300F8BD05F008F9287810F0070FFBD102200021F8BDC04630120020AB
:2037AC00D55700002DE9F0410E46294990461C4606AF8C4672680878BB8851783F8812784E
:2037CC00002502EB012242F62321521A29D0521E052A18D9921F0CD0263A34D1072F30D807
:2037EC00C7F10700984298BF83B2674407F1080121E0B84225DBC01B9842D8BF83B22380CD
:20380C00DCF804000BE0F06804F0C8FD80B2B84217DBC01B9842D8BF83B22380F0683918DD
:20382C000AE0082F0DD8C7F10800984298BF83B207EB0C010F31238040461A4600F04AF955
:20384C0003E0072501E025800A252846BDE8F081E41600202DE9F843254C0746E0689046CD
:20386C000E46B84218BF03203BD101F0E9FD051C36D405F0A3F81C4B814605F00F0046EAF4
:20388C00002626F0030143EA0100C4F8840004F0DBF800F0FF0001281AD1700B0FD305F151
:2038AC000C010120114A84F8A450884094F8A56011688143116046F0040084F8A500C4F8E5
:2038CC00887004EB8500C0F878800127277004E0284601F0DFFD6FF00105484605F06AF898
:2038EC002846BDE8F883C046010003060810044030120020F0B520480127F84201D002F02E
:20390C0095F8204D204F214EBD4206D203CD0478A4003459401CA047F6E71D48002800D0F2
:20392C008047164D164FBD4202D210CDA047FAE7F0BD03251BE0416808300A1C2A400BD157
:20394C001A1C2A40AB4305D0046804300C600431043BF9D1131C05D0047801300C7001314F
:20396C00013BF9D1021C2A4001D0A84304300368002BE0D17047C046FFFFFFFF00000000BD
:20398C0000000000DC96000044970000D496000059C501102DE9F84303F006FE244C002558
:2039AC00A5704FF6FF70A08202F0B6FE1F4E01232A462070314604F1A80002F05BF902235A
:2039CC002A4604F1CC00314602F054F904232A4604F1F000314602F04DF9042704F1480859
:2039EC00102240462946E77000F03CFC04F1580910224846294600F035FC04F120063560BF
:203A0C002572072065721021A0724246E572022003F02CF8032010214A4603F027F8384636
:203A2C003246014603F022F8BDE8F883CD810000980B00201B4838B50468B4F1FF3F08BF17
:203A4C00002404F097FC0025174818490560012008601749086001F08FFE1648006820B1FF
:203A6C00154800682046FCF7BBFD144814490560144C0A686FF35B4244EA02000860124982
:203A8C000868C0F30130012806D10A680F48104040F400320A6008600D4908680028FCD1BA
:203AAC0038BDC0461C130050840460425C600C400822044380012843000120438C21084098
:203ACC00482003400000390104000940FFFFFCFC0C006842002A4AD05FEA000C8B071CD1E4
:203AEC00830722D1102A08D370B4103A78C978C0103AFBD270BC103238D0042A2CD3082A55
:203B0C0005D30C2A24BF08C908C008C908C008C908C092072AD0920F22E00B780370491C4C
:203B2C00401C521E22D08B07F7D1C30714D18307D8D0121F12D308C903801B0C4380001D0F
:203B4C00121FF8D20AE008C903701B0A43701B0A83701B0AC370001D121FF4D2121D05D0D0
:203B6C000B780370491C401C521EF9D1604670472DE9F843002A894607464CBF47F6FF7598
:203B8C00151C002F08BF002032D03888002808BF002403D02A4600F0D1F80446281B26DD71
:203BAC00388828B1291B484612A202F027FA0419B868E0B1D7F804802E1BB8F1000F0DD0C8
:203BCC00404604F0EBFB401DB04207DC291B484609A2434602F012FA04192E1B122E06DBBC
:203BEC00BB68291B484606A202F008FA04192046BDE8F8833A2000C0222573222C2000C083
:203C0C006C696E652025643A200070472DE9F843224D884606464FF0FF3105F1240081460C
:203C2C0004F088FE00200CE0FF2909D02A688A4204D905EB8101D1F894700FB1002627E08A
:203C4C00401CB8F1000F03D018F82010FE29EBD10024346074600127B46011E0FF280ED090
:203C6C0005EB80000B787268C0F8946007FA03F0104370600A680A49304603F033FB641CCC
:203C8C00B8F1000F04D008EB84010878FE28E5D1484604F05BFE3046BDE8F883F82B002004
:203CAC00007FC7672DE9F8432020EFF3118780F31188214CA068012104F020FE4FF0010942
:203CCC004FF0000865692168A4F81C906A1A2168A4F81E80461B401A904227D387F3118811
:203CEC0040464519361A4846294604F003FEB042F7D92021EFF3118781F31188E18B012972
:203D0C0003D14046294604F0F5FDB0F1FF3F06D0A169801B814238BF081C411901E0A0696C
:203D2C00291804F0E3FDA4F820902560A4F81C8087F31188BDE8F883780100209EB51346E1
:203D4C000C461F4A1D4912880988824206DB13A219460346204602F051F99EBD194A17880A
:203D6C00814207DB03F0E0FE42681946204602F045F99EBD002F08BF0BA2E9D00094002BAC
:203D8C0048BF47F6FF73104F002101933C6802910E496A46A04702989EBDC0467B6D6F6472
:203DAC00756C652325647D007B6D6F64756C652D726F70653A25787D00C046C06C8D000091
:203DCC006E8D00008A050000388D0000E56E00002DE9984304F0F2FD1F4CDFF87880814660
:203DEC0004F1E000007850B94446A0680146022088470746102001F0A9FF2FB320E001F0AE
:203E0C000DF9002820460FD1144909683222B2FBF1F101B9012100F13004204604F0D6FD43
:203E2C00204604F0CFFD0FE044460022A16880F8E020022088470746102001F087FF1FB17F
:203E4C00A068014603208847484604F0B3FDBDE89883C046908C0000B8180020208D000064
:203E6C0070B51E4DAC68064604F056F94FF47A71001B4843030C03F0E3FA2969401A48BF5D
:203E8C00404240F6B8319B19994210D306280EDAE9688C420BD8286848B1114A091B51434F
:203EAC008A0C02EB1141884288BF011C08E00D49486840080ED208687D2100F0FF0041435C
:203ECC00C82905D3B1F57A6F88BF4FF47A6103E0C82101E04FF4FA61084670BDD02D002036
:203EEC0040420F00AC3F0050F8B5001D84B214F0030002D0241A241DA4B203F089FF01467A
:203F0C001948102C47680160C8BF8768388800221646C30BDD0319D126B984420ADD3A4690
:203F2C00012617E01388C3189BB29C42138011DC174618469FB1001B80B20428B4BF3C887B
:203F4C00385344F400443C803F1D08E080F40040002680B2C71938880028DAD1002708465A
:203F6C0004F08DF93846F8BDD4190020B0B50446A768ADF1280D27BB0C20FFF7B5FF071C0F
:203F8C0016D0684600212422082304F0E7FC002306976A466168ADF810301448059304F012
:203FAC00A1FC386038B904F05FF9384603F0EAF86FF0030018E0E06878602069B860A7600E
:203FCC000AE003F025FF0546386803F09DFD2069B860284604F053F93868616804F0F6FCBE
:203FEC00386804F0EFFC00200AB0B0BD618600007CB51D4C0546062D12D0607806282DD10A
:20400C000720002104F0A2F901F080FD01202679E071042E22D102F034F9002020711DE04C
:20402C000720012104F092F900228DF8002004F05BF9A61C40F20530012132706A46FCF70D
:20404C00AFFF03F0A9FF617A227A3089914205D040F008006081206904F078FCE069416837
:20406C006570042088477CBD0408002098B501460A888878DFF86CC019495408D3B20CD2BD
:20408C00930829D3D2083CBF0A7E104303D30A7E80F0FF00104008761EE0DA0810D21A3125
:2040AC0006224B1E13F8014FA04215D0521EF9D1491E062211F8017F6FB1521EFAD10BE0A9
:2040CC0061460622491C11F8013F984202D0521EF9D101E000200870604602F02DF998BDE5
:2040EC00040F00201C0F002070B50C461C49CA68824218BF03202DD191F8A500C2080AD397
:20410C0091F8A420A24206D100F0FB0081F8A500002681F8A46004F051FC0646204601F0FB
:20412C00B9F90D48210201F47F41084303F08CFC0A4A1168054604F10C03012098408143F5
:20414C003046116004F036FC05F0FF05012D0CBF8120022070BDC0460100080408100440F5
:20416C00301200201CB5042003F0B8FD022818D0032816D016480068C0F38150032814BFC9
:20418C0041F288324FF47A721248144C016854342046B2FBF1F104F019FC204604F012FCE6
:2041AC001CBD03200C4C009000214FF040521C23204601F017FD012000214FF40072092350
:2041CC000090204601F00EFD022002F0DDFD1CBDB43F0050208D000000A00C40B81800204E
:2041EC00F8B51D4C1B49606B266B6778082822D308281AD0A169092808D00A2827D1002062
:20420C0060630120206302F07FFCF8BD104D08464FF400012A4603F065F8A0694FF00051C1
:20422C002A4603F05FF8606B0FE0002006B10120087009200AE00741002217F00107E762B9
:20424C0018BF01220A7077402763401C6063F8BD0F0000800F200240080200200022134624
:20426C000A46194671B510F0030F0BD0002A82BF00F8011BB2F1010210F0030FF6D1002A48
:20428C0008BF71BD11F0FF0141EA0121042A18D341EA0141082A0FD30E46102A08D30C467A
:2042AC000D46B2F10F0312F00F0272C0103BFCD812F0080F18BF42C012F0040F18BF40F870
:2042CC00041B12F0020F18BF20F8021B12F0010F18BF017071BD704738B51B4C154AA06999
:2042EC004FF0005102F0FEFF134AA0694FF4000102F0F8FF4FF4487004F02DFA13480F4DD3
:20430C000021D1380170A0692A464FF4000102F0E9FFA0694FF000512A4602F0E3FF084931
:20432C00A06904F01BFA074A4FF4E02102F0DAFF38BDC0460F0000A00F0080800E000080B8
:20434C00ED4100000E00058008020020E020024038B51B4D04460846E4B1012C0DD0022C6A
:20436C001BD1D0B92846012181704FF47A71883002F07EF900F0BCFF0FE000212871E9703F
:20438C0058B92846012181704FF47A71883002F06FF902E00121E81C0170E86941686C71EF
:2043AC0005208847687A297A884208D0A878698928B141F008006881286904F0C7FA38BD8E
:2043CC000408002038B5054601201A4C68712879B0B903F01DFD2178002904BF6FF0070407
:2043EC00051C15D0491EC9B2217039B903F047FF606802F0A0FD0020687118E0054613E087
:20440C0003F006FD05462078FF2805D16FF00604284603F034FF0BE0401CC0B2012820704B
:20442C0002D1606802F09EFD284603F028FF0024204638BDC81D002070B50646B079F56845
:20444C000628A5F108052CDA3079062829DA03F0DFFC154CB27991000C3401EBC20161184C
:20446C004968E1B103F00BFF30792870B0796870307AA870B179880000EBC1002018F168FD
:20448C004068083002F0D6FEB179880000EBC10024186068406804F059FA002070BD03F0D9
:2044AC00EEFE6FF0020070BD101A002038B519491A4C00204822C1F8F30F94F8E200C1F80B
:2044CC00FF2F20B3012817D0022807D003281ED151F8310C00F024F80B2016E051F8315C1B
:2044EC002846FDF7A1FB40F2FF50A84202D8801CA842F1D2082008E051F8310C00F030FD71
:20450C00054800780028E7D0052084F8E400FDF725FE38BD39400C409E8C0000B81800207B
:20452C0038B51A4CA0F5C060D4F8B810C4F8D4000029B8BF49420028B8BF4042814220DA3A
:20454C00B4F8BC00124D30214FF47F4208230090284601F047FBB4F8C00004214FF4F80209
:20456C0012230090284601F03DFBB4F8D00020214FF440620A230090284601F033FB0120C6
:20458C0000E0002084F8D80038BDC046B818002000A00C402DE9FF410E460546194C718891
:2045AC00E08A81420CDCB188814209DBF088218B884205D13089618B884208BF18271DD0D4
:2045CC00052001F07DFE7788B388ADF80270F288ADF804303189ADF806208046ADF8081092
:2045EC00A08AADF80000684604F00AF8071C05D1A57304F1F000414602F03AF8384600908D
:20460C00BDE8FF81980B00201A4898B5D0F8781203680F0F03F0FF03802B28BF002301F081
:20462C0051FA4FF0FF3478B1401E07D0401E012802D9801E19D01AE0BFB118E0381C12D0D2
:20464C00801E14D1143311E03846401E0BD0801E07D0001F03D0401E09D1163306E01524D5
:20466C0005E0142403E00A2401E00A335CB2204698BDC046A010005038B502F081FF194C4F
:20468C0004F1280003F072FF43F6982202231349606104F1400001F0EDFA002540F20D40A7
:2046AC0001216A468DF8005002F0C2F804F04DF8FBF71EFD03F00EFE02F0D6FE02F0C4FFDB
:2046CC0003F0FEFD03F0F2FE05494FF47A722B4604F1880001F0CEFA38BDC046D57F00008A
:2046EC0015750000040800202DE9F8430024002B16460F468046254606D5002FC3F10003B5
:20470C0002D57F42761E2D2599463846494601F079FD0CA0405CB7FBF9F7002F04F10104A9
:20472C0008F8010DF1D1A64205DD3021301B401E08F8011DFBD10DB108F8015D4046BDE8A8
:20474C00F883C046303132333435363738396162636465660000704738B504461848174DB8
:20476C00283002686B68C2F30351C2F303405B0813D22B681D0511EB257103D41029A8BF91
:20478C000F2100E000211B0410EB237303D4102BA8BF0F2300E00023184640EA011002F4EF
:2047AC007F4102F0FF03222C41EA004143EA010024BF02F08042104338BDC046AC3F005031
:2047CC00501300502DE9F843994615468846064601F0FAFE071C27D07968144CC968A089D7
:2047EC00096803F013FEC0B240081DD3E07938B1E21D40F219300121FCF7D2FB0020E0717F
:20480C00388829464A4601F0A5F958B984F8346084F8358004F1370049462A4684F83650BF
:20482C00FFF758F903F0B8FBBDE8F88304080020B0B5ADF1400D04F0B9F8044600213C2275
:20484C000823684604F04AF8114841680691816800680490104818380068002205900D48A3
:20486C000891694604F036F8071C0DD003F0D0FA0546384600F0F6FF30B1284603F0FFFC1A
:20488C00204604F087F801E000F030FE10B0B0BDE089000069840000E0190020F8B5174A8A
:2048AC00174B184C121D22F003019C4621605E1A2068256860606768A660002001E025F83E
:2048CC00020BAB42FBD84FF6FC75B3102A4001EB830323F8040CACEB0202E82315403B80C9
:2048EC00EC3DA1F8E850E83144F8081CFFF7FCFA44F8040C606844F8080CF8BD052E0020E1
:20490C00683F0020E019002030B5401E4FF00004ADF12C0D0AD0401E04D0401E21D1FDF7FE
:20492C001DFC1EE000F08EFC04461AE001A821462422082304F012F806940D4DADF814402A
:20494C0009490794012201ABE63D05F1780004F001F823462C2105F19C00044A009304F0F4
:20496C0009F820460BB030BD85500000B94400009E190020F8B5054604F020F8174CB5F95E
:20498C008C10012607460C3CB4F93400E671401A06D4B4F93600B5F98C1088420CD110E083
:2049AC00B4F93600B5F98C1088420ADAB4F93600B4F93410884204DD85F88E600020207076
:2049CC0007E005F1680003F09FF8002000F0B0FBA672384603F0EEFFF8BDC0463C120020A2
:2049EC002DE9F041054615F8017B90460E461CE0B8F1000F05F101050BD0FF2C09D80220AD
:204A0C0015F8011B401E41EA0424F9D101E0042C02D315F8011B00E0394630462246FFF7A4
:204A2C0021FCA61901E006F8010B15F8010B8742F9D115F8014B002CE9D115F8010B2C78FB
:204A4C0000022418D4D1BDE8F0817047B0B5054603F068FC58B31648417A0B24491C91FB4F
:204A6C00F4F26243891A027A41728A4205D1521C92FBF4F36343D21A02728A00002300F1A5
:204A8C00FC07012402EBC102BB54D2195470082393702968D71C39606C687C6087784189B0
:204AAC002FB141F008014181006903F04FFFB0BD040800207CB5FDF711FC174C002503F01E
:204ACC00FFF80028FBD1009501A80DF106016A4602F08DFA78B9BDF80400102807D12078E1
:204AEC009DF80610884202D1009803F0ADFD009808B103F0EDFAE06803F018FF0028DED1D9
:204B0C00E06802F0C1FF061CF5D0FFF7AFFA304603F096FAEFE7C046040F0020164880B56E
:204B2C0007683FB315498B6803EA5300C00E21D2134A106880081DD2486880081AD21068CE
:204B4C00096810F0050F4FEA114101F0F00101F5E0710AD1B9420DD2190F38BF40F001000B
:204B6C00D90E38BF40F0040003E0B94202D920F00500106080BDC04628500940AC3F00509A
:204B8C000000094070B50646880F26D301F04CFC124803F023FD134DA81C0078012803D081
:204BAC0006F1300003F0D2FE0D4800240460022002F0EAF81120FEF737FA307C10B90E2032
:204BCC00FEF732FA2846084A44721178847221B11470CC30042103F02FFB70BD3D000000B5
:204BEC000000046030120020E42D0020D0B51E4603461748082706600446037111F8013B89
:204C0C007F1E637104F10104F8D136B112F8011B761E417300F10100F8D100BFD0BD84462E
:204C2C000B48E0B50D460827014606680A797F1E01F101010CF8012BF8D13DB136B1017BEB
:204C4C00761E00F1010005F8011BF8D1E0BDC046D82A00200146174880B500688A0CC0F38F
:204C6C008367C0F38F2022D241F3072100290BD54A420021400805D17F0806BF0127381CF0
:204C8C004FF6FF70521EF5D1002910DD4FF6FF72400040F00100824207D2780040F0010794
:204CAC000F2F92BF01200F27101C491EF0D140EA074080BD5013005098B50446880F24D328
:204CCC006068001D07681FB1384680476068001D416809B9876887B10C4A1768002FFCD018
:204CEC000023136019B1084680476068001D806800B18047064802F0A7FE064803F06EFC5E
:204D0C0005484FF0005103F097FA98BD1C1004400100070629240000FC1200202DE9F84387
:204D2C008146EFF31188202080F311880125114E114CF561114F6560F86A016A14208847AC
:204D4C00D9F81000810C14BF000C0420A06138680268232100209047C6F88052206820F464
:204D6C00C02040F480302060356088F31188BDE8F883C046000024430020094084010010AF
:204D8C00D0B5044603F0DEFD00F06CFD071C08BF6FF002041FD003F03BF80146A2880F48E5
:204DAC000023303030F80C6F5EB902804760A26882602373786820610024084603F05FFAE0
:204DCC0009E0964208BF6FF00204F6D05B1C062BE8D300F08BFB2046D0BDC046E019002029
:204DEC0010B503F0EBFD114C611C097829B10E490C6803F0DFFD204610BD03F0DBFD03F047
:204E0C00AFFA0DA20CCA03F0F3F9A26C002314001B1807A044EB010490E80600C91842EB9A
:204E2C0004021046001C10BD0430044030120020000000127A00000000093D000000000075
:204E4C002DE9F041154D0C46E9689846814218BF032020D16260C5F888000A21218005F1A5
:204E6C008406346000F0ECFA071C13D4A770204601F016FB022808D0012806D006EB87062A
:204E8C0046F80C8C0120287004E0384600F002FB6FF001073846BDE8F081C04630120020C5
:204EAC00F8B506AF3F881D461446002F18BF0B2022D148684278007842F61927002600EB71
:204ECC00022087420BD042F60812824218BF0A2611D102202880C868008820800BE001F003
:204EEC00E3FB0649491C0A788242C4BF021C0A700120288022703046F8BDC046641A002089
:204F0C0070B5154C154D20684FF0FF3103F012FD02F0DAFDE02818BF002602D102F0D4FD40
:204F2C000126F02818BF002202D102F0CDFD042206EB40016B5C314602F09EF800280CBF8D
:204F4C0042F0010242F00202002BDCD01046626819469047D7E7C04618020020800300200C
:204F6C00134910B50A684BF2F5214843040AC2F38140012806D102F063FA01F073FA6043E0
:204F8C0004EB90540C4901F1E500007830B90948006820F07F402418640802E0002081F8FA
:204FAC00E50006480460210C41600123836010BDB43F005010200940B81800203C600C4018
:204FCC00B0B5044603F088FB30F0010008BF6FF004041ED003F0B6FC054602F019FF014622
:204FEC000D4806223C3030F80C7F6FB1A388BB4208D1406800680022854208BF0122A26003
:20500C00002403E0521EEED14FF0FF34084603F036F92046B0BDC046D419002008B50120A8
:20502C0002F05CFE01281DD00F4834210122002301F0A8F8002808BF002014D00B480068D1
:20504C0002F0EEFA03F068F80A4A93681168D060C01A074BA1EB91014343180C884228BF7A
:20506C00011C1160012008BD00A00C408000001040420F00D02D00201548134A1349E4305C
:20508C000078801E0A281CD8DFE800F018130E1B130E1B130E1B06C010688008FCD25068F9
:2050AC008008FCD2FDF75AB808688008FCD3FDF755B808688008FCD2FDF750B810688008FE
:2050CC00FCD3FDF74BB8C04634600C4038600C40B818002098B5154B1B1D18680004070CC8
:2050EC0021D002F0ADF9104991F90720824205DD10F1800FB8BF6FF07F00C8718C88BC423B
:20510C0010D80A68D3F8D40F801A801C1F2888BF1F203F1B4008C7404FF6FF70E719B84221
:20512C0038BF071C8F8098BDF42D002030100940F8B5074603F042FC124C06462079E0B11C
:20514C00401EC0B22071C0B904F1CC00082103F073F897B1E068683002F0D6FCE0680A4D96
:20516C00C0683F1A286804F1A805B7FBF0F1284603F02CFC284603F025FC304603F01AFC53
:20518C00F8BDC04630120020208D00001549096822280ADC222819D00C380FD00E380FD0BF
:2051AC00001F0FD0C01E0FD01AE0263810D0001F10D0401E10D0401E10D011E0086870475D
:2051CC0088687047C8687047086970474869704788697047C8697047086A7047486A704783
:2051EC0000207047F0010020F8B50646B08815460F46FEF7A3FD0446002D02D4281B0A2883
:20520C0006DB3368291B38460BA200F0F7FE0419B08978B1002D06D4B06803F0BFF8291B26
:20522C00401D884206DCB368291B384603A200F0E5FE04192046F8BD257000C02827257390
:20524C002729000038B5134D95F8E100002410B91148007860B103F0B1FB95F8E310002920
:20526C0006BF012185F8E310012403F0A3FB0CB1002038BD022001F09FFD0E20FDF73EFF35
:20528C0002F0B0FA01280EBF0120002085F8E20038BDC046B81800209E8C000038B5054683
:2052AC000A2002F071FB041C1FD00421372203F07FF840F20E40208102F076FB214601F087
:2052CC00FBFF90B9002000900848694602F06AFC58B90099487828B90846C279816828464D
:2052EC00FEF7F8FB009802F0CFFE38BD818700003EB51248124C083400882168054603F030
:20530C0085F8400818D328460121002202F068FC019088B1B4F85E100124ADF800100023E8
:20532C00ADF8024069460370284602F0D5FD18B168461B2102F062FC3EBDC04610080020EA
:20534C00DC1A0020012838B51ED1012002F0C6FC01281BD002F0F8FE0D4D0E48012232232D
:20536C0005F1E00100680A70B3FBF0F404B914463035284602F0C8FB2846214603F026FB4E
:20538C00284603F01FFB01E001F022FB002038BDB8180020208D000010B5012002F09EFC73
:2053AC00114C01280ED00D4909682046322200F1A8042046B2FBF1F103F008FB204603F01B
:2053CC0001FB10BD064803F009F9064A204600F1380111600023436110BDC046208D00001D
:2053EC00F90C0000001004403012002038B51248104C0168114D0C40E1430160A10908D326
:20540C004068800905D328464FF40051CC3002F013FF14F4602F0CD0284600F1A0010A6890
:20542C0004F4602400F5807014430C60002102F003FF38BD20000E00081004403012002046
:20544C00124810B5C17901291CD00346B3F89C100122002002FA00F40C4210D04FF6FF711B
:20546C006140B3F89C402140094CA3F89C1000F10C018A40211D0B681A430A6010BD401C92
:20548C000F28E7DB6FF0010010BDC046301200200810044098B5044603F090FA84461048E0
:2054AC0090F8A510C90803D390F8A410A14213D0B0F89C300B4F012202FA04F11943A0F824
:2054CC009C10391D0B6804F10C07BA4093430B600F680FB900210170604603F06BFA98BDE4
:2054EC00301200200810044000BF704708B5FFF7FBFFFEE738B50D4C0546A06820B10C481C
:20550C00B0F1FF3F00D080470A4800688047606810B1014628468847206800B1804706482D
:20552C0000688047FFF7E2FF38BDC0468C1D0020FFFFFFFFD01D0020D41D0020F8B5124C70
:20554C000546206816460F46804733463A46B3F5807F88BF4FF480730C4E281270703570BE
:20556C001F0AB3703146F770F320FFF73FFB00213046FFF754FB606875783478804704EBBF
:20558C00052420B2F8BDC046D01D0020EC2D0020BCB506AF3F88002F18BF0B201ED14C6842
:2055AC006578247804EB052442F64F25A54209D042F60215A54218BF0A200FD1009700F044
:2055CC005BFABCBD042B18BF0D2007D10448CF68036811680120396098470020BCBDC04647
:2055EC00DC1A0020DCB5044603F0ACF901F0B4FB064603F071F830F0010014BF002E6FF04D
:20560C00040017D0606858B1B0F1FF3F05D0694601F08AFB30B107460BE04FF0FF3000E082
:20562C00002000907068009903F084F9002700B901273846DCBD7047F8B5114C6678E578B2
:20564C00182002F0A1F9071C19D00421002202F0AFFE304602F090F838727D720020B872B5
:20566C0004F14806FE6004F158033B6104F120027A6102F099F9034A394600F04DFFF8BD5E
:20568C00980B0020938700002DE9F04104461148401C90F8008016460D46102002F074F995
:2056AC00071C12D00421072202F082FE404602F063F838727C72BD72FE6002F075F9044A73
:2056CC00394600F029FFBDE8F0810420BDE8F081BD870000980B0020F8B5044603F032F9BB
:2056EC0000F0C0F8071C19D002F092FB84460D480021303030F80C6F6EB94FF6F8720280D0
:20570C0047600025856021717868A060604602F0B6FD2846F8BD491C0629EBD3FFF7E6FEC0
:20572C00F8BDC046E0190020F8B516460C4603F045F902460F484178832554B1641E02D0A4
:20574C00641E10D00DE0C179012904D0B0F89C1005E0876A0FB9802506E0806A018A318013
:20576C0002E0032500E03170104603F023F92846F8BDC046301200200F4908680028FCD1E5
:20578C00104A131D0D49186820F0030001430C480068C0080CD2106810F0030F0AD041F04F
:2057AC0003001860106800F003000328FAD101E041F00101196070470C00684204000020E3
:2057CC00B03F0050004003402DE998430446A76D9946904607B1B8470020022100EA09000A
:2057EC0001EA0801002808BF00290BD104F1500090E8060008EA010109EA0200002808BF1A
:20580C00002907D004F1600080E8000304F1300003F09CF8BDE8988398B5174642F6322418
:20582C003F1B049A0E4C4FF0000010D01B3F16D1022908D0032904D1012B0AD12146891C93
:20584C000BE00A2098BD012B03D1214605E0012B01D00D2098BD2146491C12780A7098BDE2
:20586C00AA1400202DE9F843804602F0D1FA0F4C04250026814654F80C7F5FB93046C4F8D8
:20588C0000800146A6600A4603F020F8606018B9FFF72CFE474501D1264601E06D1EEAD132
:2058AC00484602F0ECFC3046BDE8F883E0190020B0B5054603F046F8044602F00DFF30F07C
:2058CC00010008BF6FF0040414D002F0A1FA0A4A002132F80C7F4FB153681B689C4204BF13
:2058EC002971002404D0491C0629F2D36FF0040402F0C5FC2046B0BD101A00207CB5114DEB
:20590C0004460E46600807D3B0B20021009001220B46284600F066F9A00807D3B0B20090E3
:20592C00002102220123284600F05CF9E00807D3B0B2009000210C220223284600F052F96E
:20594C007CBDC04600A00C40BCB514464A685578127806AF02EB052242F60215954213D169
:20596C003A880092224600F087F8074608480830016857B949B16278207810EB02200CBF4E
:20598C0002200120884700E00A273846BCBDC046641A002038B50546287B00F00F00022839
:2059AC0018D10D4C2078012814D0FFF719FAA9686FF070458908A1EB900085420ADDB0F1CA
:2059CC00704FBCBF05490844E168C96801F57A71814200DB002038BD30120020F6FFFF1F64
:2059EC0010B50178A23902D02E391AD010BD4179132918D100890C4C01280AD12046F03840
:205A0C00817B022905D1F03002F0EDFE02F058FA10BD052000F054FC0146204600F028FE47
:205A2C0010BDFBF7DBFB10BD880C0020F8B506460F4D104F7388002417E0A00000EBC4002B
:205A4C00321851689068D26852B9AF420BD00A7855F822200346491C08461946904701E00A
:205A6C00FEF738F87388641CA4B2A342E5DCF8BDD4960000DC960000F8B506AF3F880D4671
:205A8C000646E7B9022B18D15078147804EB002434F001000FD1E9680968304602F0B6FCB0
:205AAC00844208BF00200BD0E96809683046224601F002FDF8BD8020F8BD0D20F8BD0B20AB
:205ACC00F8BD7047104A1068C0F30F314BF69A10884207D111680B20B0EB117F14BF00203A
:205AEC00042070472430884208BF01200BD04BF64130884208BF032005D0213888420CBFB5
:205B0C0002204FF0FF3070471813005010B502F04FFA01200E4A0D4C10700021A170E170E2
:205B2C00FF200C22607104F13400FEF79BFB02F0F9FB28B1206A0079800801D300F080FAFF
:205B4C00E06941680520884710BDC04604080020A9140020FEB5104C06460C3420881746D7
:205B6C000D46002202F03CF8019090B1ADF80060ADF8025039462A46FDF7ACFF20886946CB
:205B8C0002F0AAF9041C05D068461B2102F036F800E013242046FEBD040800207CB5079E2B
:205BAC00069D0C460020191C10D142F64D21914205D1022C03D12878314602F0BDFB80B963
:205BCC0000962B782146FFF727FE7CBD012908D10096214601AB00F013FD10B99DF80410A7
:205BEC0029807CBDB0B500EB4100102B04AF00F5007403D3103B00F50174120C3D889D4084
:205C0C0045EA024502F044FD002700B90127064A394610680028FCD025600120106009B1BC
:205C2C0002F03CFDB0BDC04600800C40F0B5044605AFADF10C0D03B9094B97E860008DE830
:205C4C006000FCF7BBF9011C44BF06A003C804D406A20CCA2046FDF74DFD03B0F0BDC04640
:205C6C00D557000000000000000000800200000000000070F0B50D4614461F460646ADF159
:205C8C00240D002124220823684602F067FE00200590ADF8100008484FF47A716B4600682F
:205CAC000697B1FBF0F080B2294604FB00F2304602F050FE09B0F0BD208D00003EB5104C05
:205CCC006169054602F0A2FB400818D328460121002201F085FF019088B1B4F842100123CE
:205CEC00ADF800106278ADF8023069460270284602F0F2F818B168461B2101F07FFF3EBDAA
:205D0C00641A00202DE9F04104461E4690460D46142001F039FE071C13D03246032102F0CB
:205D2C0047FB3C81002038744046FD6001F024FD787401F039FE044A394600F0EDFBBDE839
:205D4C00F0810420BDE8F081517E000070B5104C0646204602F0ECFC0025B0B9204602F0CA
:205D6C003AFD0446A06806420AD0E068226900210346304698470546012D08BF012005D0A4
:205D8C00204602F02AFD041CECD1284670BDC046B818002010B504462088401E19D00F38C5
:205DAC0013D0103807D0203816D16168A0780978FEF7CEFA05E06068C188027A437A01F057
:205DCC00B7FC606802F024F910BDA07801F09EFC10BDA078FEF70CF910BDFEE70F4A01468C
:205DEC001068ADF1080D08B9002010600846801E12D0801E10D0401E07D001208DF80100F3
:205E0C009DF801000028FBD106E001208DF800009DF800000028FBD102B07047080F002037
:205E2C000F48B0B514384478858A0E2001F0ACFD071C11D004210A2202F0BAFA204601F069
:205E4C009BFC38727D811320387301F0ADFD034A394600F061FBB0BD0420B0BDB78700002A
:205E6C00AC0B00202DE9F04102F042FC0D4D2B688046A3B105F194060024012707FA04F0F0
:205E8C0018EA000F07D056F8240020B1026812B1214690472B68641CE4B29C42EED3BDE873
:205EAC00F081C046F82B00200C4885460C4885446F4607208743BD460A486F4607600A4877
:205ECC00002803D07946491D8E460047FDF712FD02F082F902F0F6FCFEE7C046683F002075
:205EEC0000040000E41B00200987000038B50F4C00213C22082304F16C05284602F0EEFC41
:205F0C00094905F5437000232A46C4F888004FF42170C4F88C000220C4F8840004F1A80084
:205F2C0002F0CCFC38BDC0460D4F0000080200202DE9F04104460E48057890460E4610205C
:205F4C0001F022FD071C10D03246042102F030FA284601F011FC3872FC6001F025FD394665
:205F6C00424600F0D9FABDE8F0810420BDE8F081990B002038B50F480B4C0C4D0121D23896
:205F8C000170A0692A464FF4000101F0ABF9A0694FF000512A4601F0A5F9054AA0694FF4FF
:205FAC00E02101F09FF938BD080200200E0000800E000580E020024070B502F07BFC0646EF
:205FCC000B480C4C05682089012806D10A496268206809681018891AA84720686168A847E4
:205FEC00002060602081304602F060FC70BDC046308D0000B01D00202C8D00000CB4F0B555
:20600C0005AF061C0C4627F00303ADF1040D03F1040304D03068002818BF051C00D1002503
:20602C003A68284602F062FA844238BF601E15B131684118316001B0BDE8F04002B0704783
:20604C0008B506204FF4C86100F00CFC07204FF4C86100F007FC0120002100F003FC002016
:20606C0001216A468DF8000040F20D30FAF798FF012140F205306A468DF80010FAF790FF78
:20608C0008BDD0B504463C20FDF72EFF071C14D000213C22082302F021FC207AB861608987
:2060AC003862E068386160683946002202F012FC0646384601F066F816B96FF00300D0BD19
:2060CC000020D0BD0E4A10B553781478A8B1401E12D0401E0ED0401E10D1107902F14804B7
:2060EC00087250794C6001234872B2F842008B72088010BD508CFBE723460B7010BDC04614
:20610C00641A00200E480EB5F0388178062916D1B0F84010ADF80210B0F84230ADF80430E3
:20612C00B0F84420ADF80620B0F84610ADF80810CC3002F058FB01206946FEF72BFA0EBDCB
:20614C00880C002000B500213C220823ADF13C0D684602F0C3FB094800F5B27107914FF497
:20616C000271089103210691054900236A4600F58A7002F0A3FB0FB000BDC046980B002067
:20618C00A1290000F8B51E4614460D18102E02D3103EAD1C240C02F07BFA002700B90127D0
:2061AC0007483B460768002FFCD02D88012101600BB102F073FA2C403441A0B2F8BDC04658
:2061CC0000800C400E4938B5CA68824210D1487801280DD102F0F2FB0546084801F034FC6A
:2061EC000446284602F0E6FB04F0FF00012802D06FF07F0038BD4FFAA4F038BD010003046D
:20620C00301200201CB50A1C17D000230124E407A04238BF041C944201D95200FBE7904250
:20622C005B41904228BF801A914201D25208F6E7191C021C081C111C1CBD00B1C843FEF758
:20624C0004FC1CBD08B50620202100F00BFB0720302100F007FB0120052100F003FB002080
:20626C0001216A468DF8000040F20D30FAF798FE012140F205306A468DF80010FAF790FE78
:20628C0008BD08B50620302100F0ECFA0720502100F0E8FA01203C2100F0E4FA002001212B
:2062AC006A468DF8000040F20D30FAF779FE012140F205306A468DF80010FAF771FE08BDD3
:2062CC003EB505460020ADF804000A2001F05CFB041C0DD00421312202F06AF8258101F0D9
:2062EC0063FB01A90223044A0091214600F032F9BDF804003EBDC0469F870000F8B504462D
:20630C0016460D46142001F03FFB071C0FD00421022202F055F9BC60BD811020B8733E6184
:20632C0001F042FB034A394600F0F6F8F8BD0420F8BDC046958500000D4910B504460A78E4
:20634C004878062A04D0022A0ED001F0E1FF0BE050B1087AC979884206D1002001210822D5
:20636C002346FEF72FFA10BD2046FEF76FFB10BD0508002000B500213C220823ADF13C0DB8
:20638C00684602F0ABFA084800F5C071079140F21221089102210691044900236A46AC30EA
:2063AC0002F08CFA0FB000BD04080020552F000000B500213C220823ADF13C0D684602F047
:2063CC008DFA084800F1A40107914FF42171089101210691044900236A46543002F06EFA87
:2063EC000FB000BD040F0020C14A000070B50446606810F07F4F18BF6FF0020011D101F0C7
:20640C0007FD084D0646287828B1686800F093FD606800F0A7FD60686860304601F02FFF81
:20642C00002070BDC81D00200C49086820F0020040F4007008600A48032140F8041C41F21A
:20644C0030018160012101605022826001604FF4CA628260016040F80C1C704700000460B9
:20646C000C4104400D4938B5D1F8EC3209681B3800FB00F409060A1643F3072100FB01F524
:20648C0019066043091661434243891201EBE50101EBA24000EB234038BDC046A41000505E
:2064AC0038B5044602F08AFA05460B48401C007868B1204601F0C8FA0446284602F07AFA61
:2064CC0004F0FF04012C0CBF8120022038BD284602F070FA012038BD30120020B0B5044618
:2064EC000D46102001F050FA071C10D02146062202F066F80020388115247C81054AFA6038
:20650C0001F052FA39462A4600F006F8B0BD0420B0BDC046678C00001CB51446CA78012AC6
:20652C0002D18A880A4B1A8000F0C6FE30B9002000906946204601F035FB18B101F03EFC04
:20654C00044603E00098447801F09EFD20461CBD981D002038B51C46154600F0ADFEB0B960
:20656C00002000906946284601F01CFB78B90099487848B90846C1798C4205D101460498A0
:20658C0089682246FDF7A6FA009801F07DFD38BDF8B5044616460D46142001F0F5F9071C2E
:2065AC000ED00121142202F00BF83C72FD603E820420B87401F0F8F9024A3946FFF7ACFF3B
:2065CC00F8BDC046A38500000B4B0A46B0B501469F79986977B1094D037A994206D1437AF7
:2065EC009A4203D12B78847AA34204D07F1E00F10C00F1D10020B0BD04080020A914002093
:20660C000C48B0B517460C46049A417842F632257F1B09D01B3F05D10178022C04D0817809
:20662C00032C01D0002001E01170012018700020B0BDC046AA14002010B504460B480268E6
:20664C000023D90750080143D007801A4FF47A729941FBF7F7F8002908BFB0F1004F28BF6D
:20666C006FF000406060002010BDC046208D000038B50D46044602F0C0F810B1204601F0C3
:20668C0043FA084800684FF47A71B1FBF0F080B205FB00F1204602F099F9204602F092F94F
:2066AC0038BDC046208D000038B50C4C04F10C00006800B180470848026861887D25642334
:2066CC0005FB02F0420903FB02F0B0FBF1F5206900B18047E8B238BD28500940641A002001
:2066EC00F8B50C4D0A4E143531782A6800244FF6FF7709E032F82400874203D0FFF7DEFA2C
:20670C002A683178641CE4B2A142F3DCF8BDC046980B0020641A00201CB500208DF80400D4
:20672C00082001F031F9041C0CD00121122201F047FF01F039F901A90123044A009121464A
:20674C00FFF708FF9DF804001CBDC046BF85000008B501F0A3FEFBF74FFB022000F02CFBB0
